{
  "contractName": "ExerciceSolution",
  "abi": [
    {
      "inputs": [],
      "stateMutability": "nonpayable",
      "type": "constructor"
    },
    {
      "stateMutability": "payable",
      "type": "fallback",
      "payable": true
    },
    {
      "inputs": [
        {
          "internalType": "address",
          "name": "",
          "type": "address"
        }
      ],
      "name": "claimedTokenTracker",
      "outputs": [
        {
          "internalType": "uint256",
          "name": "",
          "type": "uint256"
        }
      ],
      "stateMutability": "view",
      "type": "function",
      "constant": true
    },
    {
      "stateMutability": "payable",
      "type": "receive",
      "payable": true
    },
    {
      "inputs": [],
      "name": "claimTokensOnBehalf",
      "outputs": [],
      "stateMutability": "nonpayable",
      "type": "function"
    },
    {
      "inputs": [
        {
          "internalType": "address",
          "name": "callerAddress",
          "type": "address"
        }
      ],
      "name": "tokensInCustody",
      "outputs": [
        {
          "internalType": "uint256",
          "name": "",
          "type": "uint256"
        }
      ],
      "stateMutability": "nonpayable",
      "type": "function"
    },
    {
      "inputs": [
        {
          "internalType": "uint256",
          "name": "amountToWithdraw",
          "type": "uint256"
        }
      ],
      "name": "withdrawTokens",
      "outputs": [
        {
          "internalType": "uint256",
          "name": "",
          "type": "uint256"
        }
      ],
      "stateMutability": "nonpayable",
      "type": "function"
    }
  ],
  "bytecode": "0x608060405234801561001057600080fd5b5073b5d82fee98d62cb7bc76eabad5879fa4b29ffe94600160006101000a81548173ffffffffffffffffffffffffffffffffffffffff021916908373ffffffffffffffffffffffffffffffffffffffff16021790555061099b806100756000396000f3fe6080604052600436106100435760003560e01c80630776d1181461004c5780630e4f7f3614610089578063315a095d146100a0578063fc455208146100dd5761004a565b3661004a57005b005b34801561005857600080fd5b50610073600480360361006e919081019061068a565b61011a565b6040516100809190610876565b60405180910390f35b34801561009557600080fd5b5061009e610162565b005b3480156100ac57600080fd5b506100c760048036036100c291908101906106dc565b6103cb565b6040516100d49190610876565b60405180910390f35b3480156100e957600080fd5b5061010460048036036100ff919081019061068a565b61061e565b6040516101119190610876565b60405180910390f35b60008060008373ffffffffffffffffffffffffffffffffffffffff1673ffffffffffffffffffffffffffffffffffffffff168152602001908152602001600020549050919050565b6000600160009054906101000a900473ffffffffffffffffffffffffffffffffffffffff1673ffffffffffffffffffffffffffffffffffffffff166370a08231306040518263ffffffff1660e01b81526004016101bf91906107f2565b60206040518083038186803b1580156101d757600080fd5b505afa1580156101eb573d6000803e3d6000fd5b505050506040513d601f19601f8201168201806040525061020f9190810190610705565b9050600160009054906101000a900473ffffffffffffffffffffffffffffffffffffffff1673ffffffffffffffffffffffffffffffffffffffff166348c54b9d6040518163ffffffff1660e01b8152600401600060405180830381600087803b15801561027b57600080fd5b505af115801561028f573d6000803e3d6000fd5b505050506000600160009054906101000a900473ffffffffffffffffffffffffffffffffffffffff1673ffffffffffffffffffffffffffffffffffffffff166370a08231306040518263ffffffff1660e01b81526004016102f091906107f2565b60206040518083038186803b15801561030857600080fd5b505afa15801561031c573d6000803e3d6000fd5b505050506040513d601f19601f820116820180604052506103409190810190610705565b90508181036000803373ffffffffffffffffffffffffffffffffffffffff1673ffffffffffffffffffffffffffffffffffffffff16815260200190815260200160002054016000803373ffffffffffffffffffffffffffffffffffffffff1673ffffffffffffffffffffffffffffffffffffffff168152602001908152602001600020819055505050565b6000806000803373ffffffffffffffffffffffffffffffffffffffff1673ffffffffffffffffffffffffffffffffffffffff168152602001908152602001600020541161044d576040517f08c379a000000000000000000000000000000000000000000000000000000000815260040161044490610856565b60405180910390fd5b6000803373ffffffffffffffffffffffffffffffffffffffff1673ffffffffffffffffffffffffffffffffffffffff168152602001908152602001600020548211156104ce576040517f08c379a00000000000000000000000000000000000000000000000000000000081526004016104c590610836565b60405180910390fd5b6000600160009054906101000a900473ffffffffffffffffffffffffffffffffffffffff1673ffffffffffffffffffffffffffffffffffffffff1663a9059cbb33856040518363ffffffff1660e01b815260040161052d92919061080d565b602060405180830381600087803b15801561054757600080fd5b505af115801561055b573d6000803e3d6000fd5b505050506040513d601f19601f8201168201806040525061057f91908101906106b3565b9050801561061357826000803373ffffffffffffffffffffffffffffffffffffffff1673ffffffffffffffffffffffffffffffffffffffff16815260200190815260200160002054036000803373ffffffffffffffffffffffffffffffffffffffff1673ffffffffffffffffffffffffffffffffffffffff1681526020019081526020016000208190555082915050610619565b60009150505b919050565b60006020528060005260406000206000915090505481565b60008135905061064581610920565b92915050565b60008151905061065a81610937565b92915050565b60008135905061066f8161094e565b92915050565b6000815190506106848161094e565b92915050565b60006020828403121561069c57600080fd5b60006106aa84828501610636565b91505092915050565b6000602082840312156106c557600080fd5b60006106d38482850161064b565b91505092915050565b6000602082840312156106ee57600080fd5b60006106fc84828501610660565b91505092915050565b60006020828403121561071757600080fd5b600061072584828501610675565b91505092915050565b610737816108ea565b82525050565b600061074a602c83610891565b91507f547279696e6720746f2072656d6f7665206d6f726520746f6b656e732074686160008301527f6e20696e20637573746f647900000000000000000000000000000000000000006020830152604082019050919050565b60006107b0601483610891565b91507f4e6f20746f6b656e7320696e20637573746f64790000000000000000000000006000830152602082019050919050565b6107ec816108e0565b82525050565b6000602082019050610807600083018461072e565b92915050565b6000604082019050610822600083018561072e565b61082f60208301846107e3565b9392505050565b6000602082019050818103600083015261084f8161073d565b9050919050565b6000602082019050818103600083015261086f816107a3565b9050919050565b600060208201905061088b60008301846107e3565b92915050565b600082825260208201905092915050565b60006108ad826108c0565b9050919050565b60008115159050919050565b600073ffffffffffffffffffffffffffffffffffffffff82169050919050565b6000819050919050565b60006108f5826108fc565b9050919050565b60006109078261090e565b9050919050565b6000610919826108c0565b9050919050565b610929816108a2565b811461093457600080fd5b50565b610940816108b4565b811461094b57600080fd5b50565b610957816108e0565b811461096257600080fd5b5056fea2646970667358221220b5b487f5a14d22657a747a0d0745d75a743e052afb31520c6777b6fb7b37201564736f6c63430006020033",
  "source": "pragma solidity >=0.6.0;\r\npragma experimental ABIEncoderV2;\r\n\r\nimport \"./IERC20Claimable.sol\";\r\n\r\ncontract ExerciceSolution {\r\n    \r\n    mapping(address => uint256) public claimedTokenTracker;\r\n    IERC20Claimable claimableERC20;\r\n\r\n    constructor() public {\r\n        claimableERC20 = IERC20Claimable(0xb5d82FEE98d62cb7Bc76eabAd5879fa4b29fFE94);\r\n\t}\r\n\r\n\tfallback () external payable \r\n\t{}\r\n\r\n\treceive () external payable \r\n\t{}\r\n\r\n    function claimTokensOnBehalf() public {\r\n        uint256 lastBalance = claimableERC20.balanceOf(address(this));\r\n        claimableERC20.claimTokens();\r\n        uint256 newBalance = claimableERC20.balanceOf(address(this));\r\n        claimedTokenTracker[msg.sender] = claimedTokenTracker[msg.sender] + (newBalance - lastBalance);\r\n    }\r\n\r\n    function tokensInCustody(address callerAddress) public returns (uint256) {\r\n        return claimedTokenTracker[callerAddress];\r\n    }\r\n\r\n    function withdrawTokens(uint256 amountToWithdraw) public returns (uint256) {\r\n        require(claimedTokenTracker[msg.sender] > 0, \"No tokens in custody\");\r\n        require(amountToWithdraw <= claimedTokenTracker[msg.sender], \"Trying to remove more tokens than in custody\");\r\n        \r\n        bool success = claimableERC20.transfer(msg.sender, amountToWithdraw);\r\n        \r\n        if (success) {\r\n            claimedTokenTracker[msg.sender] = claimedTokenTracker[msg.sender] - amountToWithdraw;\r\n            return amountToWithdraw;\r\n        } \r\n        else {\r\n            return 0;\r\n        }\r\n    }\r\n}",
  "sourcePath": "C:\\Users\\laith\\OneDrive\\Bureau\\Informatique\\GitHub\\_SHARED\\erc20-102\\contracts\\ExerciceSolution.sol",
  "compiler": {
    "name": "solc",
    "version": "0.6.2+commit.bacdbe57.Emscripten.clang"
  },
  "schemaVersion": "3.4.3",
  "updatedAt": "2021-11-21T16:28:47.065Z",
  "networkType": "ethereum",
  "devdoc": {
    "methods": {}
  },
  "userdoc": {
    "methods": {}
  }
}