{
  "contractName": "ExerciceSolution",
  "abi": [
    {
      "inputs": [
        {
          "internalType": "contract ExerciceSolutionToken",
          "name": "_exSoTo",
          "type": "address"
        }
      ],
      "stateMutability": "nonpayable",
      "type": "constructor"
    },
    {
      "stateMutability": "payable",
      "type": "fallback",
      "payable": true
    },
    {
      "inputs": [
        {
          "internalType": "address",
          "name": "",
          "type": "address"
        }
      ],
      "name": "claimedTokenTracker",
      "outputs": [
        {
          "internalType": "uint256",
          "name": "",
          "type": "uint256"
        }
      ],
      "stateMutability": "view",
      "type": "function",
      "constant": true
    },
    {
      "inputs": [],
      "name": "exsotoAddress",
      "outputs": [
        {
          "internalType": "address",
          "name": "",
          "type": "address"
        }
      ],
      "stateMutability": "view",
      "type": "function",
      "constant": true
    },
    {
      "stateMutability": "payable",
      "type": "receive",
      "payable": true
    },
    {
      "inputs": [],
      "name": "claimTokensOnBehalf",
      "outputs": [],
      "stateMutability": "nonpayable",
      "type": "function"
    },
    {
      "inputs": [
        {
          "internalType": "address",
          "name": "callerAddress",
          "type": "address"
        }
      ],
      "name": "tokensInCustody",
      "outputs": [
        {
          "internalType": "uint256",
          "name": "",
          "type": "uint256"
        }
      ],
      "stateMutability": "nonpayable",
      "type": "function"
    },
    {
      "inputs": [
        {
          "internalType": "uint256",
          "name": "amountToWithdraw",
          "type": "uint256"
        }
      ],
      "name": "withdrawTokens",
      "outputs": [
        {
          "internalType": "uint256",
          "name": "",
          "type": "uint256"
        }
      ],
      "stateMutability": "nonpayable",
      "type": "function"
    },
    {
      "inputs": [
        {
          "internalType": "uint256",
          "name": "amountToWithdraw",
          "type": "uint256"
        }
      ],
      "name": "depositTokens",
      "outputs": [
        {
          "internalType": "uint256",
          "name": "",
          "type": "uint256"
        }
      ],
      "stateMutability": "nonpayable",
      "type": "function"
    },
    {
      "inputs": [],
      "name": "getERC20DepositAddress",
      "outputs": [
        {
          "internalType": "address",
          "name": "",
          "type": "address"
        }
      ],
      "stateMutability": "nonpayable",
      "type": "function"
    }
  ],
  "bytecode": "0x608060405234801561001057600080fd5b50604051610ea9380380610ea983398181016040526100329190810190610124565b80600160006101000a81548173ffffffffffffffffffffffffffffffffffffffff021916908373ffffffffffffffffffffffffffffffffffffffff16021790555080600360006101000a81548173ffffffffffffffffffffffffffffffffffffffff021916908373ffffffffffffffffffffffffffffffffffffffff16021790555073b5d82fee98d62cb7bc76eabad5879fa4b29ffe94600260006101000a81548173ffffffffffffffffffffffffffffffffffffffff021916908373ffffffffffffffffffffffffffffffffffffffff160217905550506101a8565b60008151905061011e81610191565b92915050565b60006020828403121561013657600080fd5b60006101448482850161010f565b91505092915050565b600061015882610171565b9050919050565b600061016a8261014d565b9050919050565b600073ffffffffffffffffffffffffffffffffffffffff82169050919050565b61019a8161015f565b81146101a557600080fd5b50565b610cf2806101b76000396000f3fe6080604052600436106100745760003560e01c8063315a095d1161004e578063315a095d146100fc578063dd49756e14610139578063de442dec14610176578063fc455208146101a15761007b565b80630776d1181461007d5780630e4f7f36146100ba57806319fa44cd146100d15761007b565b3661007b57005b005b34801561008957600080fd5b506100a4600480360361009f9190810190610980565b6101de565b6040516100b19190610bcd565b60405180910390f35b3480156100c657600080fd5b506100cf610226565b005b3480156100dd57600080fd5b506100e661048f565b6040516100f39190610af7565b60405180910390f35b34801561010857600080fd5b50610123600480360361011e91908101906109d2565b6104b9565b6040516101309190610bcd565b60405180910390f35b34801561014557600080fd5b50610160600480360361015b91908101906109d2565b61070c565b60405161016d9190610bcd565b60405180910390f35b34801561018257600080fd5b5061018b6108ee565b6040516101989190610af7565b60405180910390f35b3480156101ad57600080fd5b506101c860048036036101c39190810190610980565b610914565b6040516101d59190610bcd565b60405180910390f35b60008060008373ffffffffffffffffffffffffffffffffffffffff1673ffffffffffffffffffffffffffffffffffffffff168152602001908152602001600020549050919050565b6000600260009054906101000a900473ffffffffffffffffffffffffffffffffffffffff1673ffffffffffffffffffffffffffffffffffffffff166370a08231306040518263ffffffff1660e01b81526004016102839190610b12565b60206040518083038186803b15801561029b57600080fd5b505afa1580156102af573d6000803e3d6000fd5b505050506040513d601f19601f820116820180604052506102d391908101906109fb565b9050600260009054906101000a900473ffffffffffffffffffffffffffffffffffffffff1673ffffffffffffffffffffffffffffffffffffffff166348c54b9d6040518163ffffffff1660e01b8152600401600060405180830381600087803b15801561033f57600080fd5b505af1158015610353573d6000803e3d6000fd5b505050506000600260009054906101000a900473ffffffffffffffffffffffffffffffffffffffff1673ffffffffffffffffffffffffffffffffffffffff166370a08231306040518263ffffffff1660e01b81526004016103b49190610b12565b60206040518083038186803b1580156103cc57600080fd5b505afa1580156103e0573d6000803e3d6000fd5b505050506040513d601f19601f8201168201806040525061040491908101906109fb565b90508181036000803373ffffffffffffffffffffffffffffffffffffffff1673ffffffffffffffffffffffffffffffffffffffff16815260200190815260200160002054016000803373ffffffffffffffffffffffffffffffffffffffff1673ffffffffffffffffffffffffffffffffffffffff168152602001908152602001600020819055505050565b6000600160009054906101000a900473ffffffffffffffffffffffffffffffffffffffff16905090565b6000806000803373ffffffffffffffffffffffffffffffffffffffff1673ffffffffffffffffffffffffffffffffffffffff168152602001908152602001600020541161053b576040517f08c379a000000000000000000000000000000000000000000000000000000000815260040161053290610bad565b60405180910390fd5b6000803373ffffffffffffffffffffffffffffffffffffffff1673ffffffffffffffffffffffffffffffffffffffff168152602001908152602001600020548211156105bc576040517f08c379a00000000000000000000000000000000000000000000000000000000081526004016105b390610b8d565b60405180910390fd5b6000600260009054906101000a900473ffffffffffffffffffffffffffffffffffffffff1673ffffffffffffffffffffffffffffffffffffffff1663a9059cbb33856040518363ffffffff1660e01b815260040161061b929190610b64565b602060405180830381600087803b15801561063557600080fd5b505af1158015610649573d6000803e3d6000fd5b505050506040513d601f19601f8201168201806040525061066d91908101906109a9565b9050801561070157826000803373ffffffffffffffffffffffffffffffffffffffff1673ffffffffffffffffffffffffffffffffffffffff16815260200190815260200160002054036000803373ffffffffffffffffffffffffffffffffffffffff1673ffffffffffffffffffffffffffffffffffffffff1681526020019081526020016000208190555082915050610707565b60009150505b919050565b600080600260009054906101000a900473ffffffffffffffffffffffffffffffffffffffff1673ffffffffffffffffffffffffffffffffffffffff166323b872dd3330866040518463ffffffff1660e01b815260040161076e93929190610b2d565b602060405180830381600087803b15801561078857600080fd5b505af115801561079c573d6000803e3d6000fd5b505050506040513d601f19601f820116820180604052506107c091908101906109a9565b905080156108e357826000803373ffffffffffffffffffffffffffffffffffffffff1673ffffffffffffffffffffffffffffffffffffffff16815260200190815260200160002054016000803373ffffffffffffffffffffffffffffffffffffffff1673ffffffffffffffffffffffffffffffffffffffff16815260200190815260200160002081905550600360009054906101000a900473ffffffffffffffffffffffffffffffffffffffff1673ffffffffffffffffffffffffffffffffffffffff166340c10f1933856040518363ffffffff1660e01b81526004016108a8929190610b64565b600060405180830381600087803b1580156108c257600080fd5b505af11580156108d6573d6000803e3d6000fd5b50505050829150506108e9565b60009150505b919050565b600160009054906101000a900473ffffffffffffffffffffffffffffffffffffffff1681565b60006020528060005260406000206000915090505481565b60008135905061093b81610c77565b92915050565b60008151905061095081610c8e565b92915050565b60008135905061096581610ca5565b92915050565b60008151905061097a81610ca5565b92915050565b60006020828403121561099257600080fd5b60006109a08482850161092c565b91505092915050565b6000602082840312156109bb57600080fd5b60006109c984828501610941565b91505092915050565b6000602082840312156109e457600080fd5b60006109f284828501610956565b91505092915050565b600060208284031215610a0d57600080fd5b6000610a1b8482850161096b565b91505092915050565b610a2d81610c41565b82525050565b610a3c81610bf9565b82525050565b6000610a4f602c83610be8565b91507f547279696e6720746f2072656d6f7665206d6f726520746f6b656e732074686160008301527f6e20696e20637573746f647900000000000000000000000000000000000000006020830152604082019050919050565b6000610ab5601483610be8565b91507f4e6f20746f6b656e7320696e20637573746f64790000000000000000000000006000830152602082019050919050565b610af181610c37565b82525050565b6000602082019050610b0c6000830184610a33565b92915050565b6000602082019050610b276000830184610a24565b92915050565b6000606082019050610b426000830186610a24565b610b4f6020830185610a24565b610b5c6040830184610ae8565b949350505050565b6000604082019050610b796000830185610a24565b610b866020830184610ae8565b9392505050565b60006020820190508181036000830152610ba681610a42565b9050919050565b60006020820190508181036000830152610bc681610aa8565b9050919050565b6000602082019050610be26000830184610ae8565b92915050565b600082825260208201905092915050565b6000610c0482610c17565b9050919050565b60008115159050919050565b600073ffffffffffffffffffffffffffffffffffffffff82169050919050565b6000819050919050565b6000610c4c82610c53565b9050919050565b6000610c5e82610c65565b9050919050565b6000610c7082610c17565b9050919050565b610c8081610bf9565b8114610c8b57600080fd5b50565b610c9781610c0b565b8114610ca257600080fd5b50565b610cae81610c37565b8114610cb957600080fd5b5056fea2646970667358221220208f063546c94c67303fd67cc607e24977024e2b8e84b411726a826f7ed391f664736f6c63430006020033",
  "source": "pragma solidity >=0.6.0;\r\npragma experimental ABIEncoderV2;\r\n\r\nimport \"./ExerciceSolutionToken.sol\";\r\nimport \"./IERC20Claimable.sol\";\r\n\r\ncontract ExerciceSolution {\r\n    \r\n    mapping(address => uint256) public claimedTokenTracker;\r\n\taddress public exsotoAddress;\r\n\r\n    IERC20Claimable claimableERC20;\r\n    ExerciceSolutionToken exSoTo;\r\n\r\n\r\n    constructor(ExerciceSolutionToken _exSoTo) public {\r\n        exsotoAddress = address(_exSoTo);\r\n        exSoTo = _exSoTo;\r\n        claimableERC20 = IERC20Claimable(0xb5d82FEE98d62cb7Bc76eabAd5879fa4b29fFE94);\r\n\t}\r\n\r\n\tfallback () external payable \r\n\t{}\r\n\r\n\treceive () external payable \r\n\t{}\r\n\r\n    function claimTokensOnBehalf() public {\r\n        uint256 lastBalance = claimableERC20.balanceOf(address(this));\r\n        claimableERC20.claimTokens();\r\n        uint256 newBalance = claimableERC20.balanceOf(address(this));\r\n        claimedTokenTracker[msg.sender] = claimedTokenTracker[msg.sender] + (newBalance - lastBalance);\r\n    }\r\n\r\n    function tokensInCustody(address callerAddress) public returns (uint256) {\r\n        return claimedTokenTracker[callerAddress];\r\n    }\r\n\r\n    function withdrawTokens(uint256 amountToWithdraw) public returns (uint256) {\r\n        require(claimedTokenTracker[msg.sender] > 0, \"No tokens in custody\");\r\n        require(amountToWithdraw <= claimedTokenTracker[msg.sender], \"Trying to remove more tokens than in custody\");\r\n        \r\n        bool success = claimableERC20.transfer(msg.sender, amountToWithdraw);\r\n        \r\n        if (success) {\r\n            claimedTokenTracker[msg.sender] = claimedTokenTracker[msg.sender] - amountToWithdraw;\r\n            return amountToWithdraw;\r\n        } \r\n        else {\r\n            return 0;\r\n        }\r\n    }\r\n\r\n    function depositTokens(uint256 amountToWithdraw) public returns (uint256) {\r\n        bool success = claimableERC20.transferFrom(msg.sender, address(this), amountToWithdraw);\r\n\r\n        if (success) {\r\n            claimedTokenTracker[msg.sender] = claimedTokenTracker[msg.sender] + amountToWithdraw;\r\n            exSoTo.mint(msg.sender, amountToWithdraw);\r\n            return amountToWithdraw;\r\n        }\r\n        else {\r\n            return 0;\r\n        }\r\n    }\r\n\r\n    function getERC20DepositAddress() public returns (address) {\r\n        return exsotoAddress;\r\n    }\r\n}",
  "sourcePath": "C:\\Users\\laith\\OneDrive\\Bureau\\Informatique\\GitHub\\_SHARED\\erc20-102\\contracts\\ExerciceSolution.sol",
  "compiler": {
    "name": "solc",
    "version": "0.6.2+commit.bacdbe57.Emscripten.clang"
  },
  "schemaVersion": "3.4.3",
  "updatedAt": "2021-11-22T21:59:04.745Z",
  "networkType": "ethereum",
  "devdoc": {
    "methods": {}
  },
  "userdoc": {
    "methods": {}
  }
}